:020000040000fa
:080000000002040000000000f2
:020000040000fa
:10040000af8820000eff27000e01880000000000ca
:100410000c000700e0542100010020000f0007003d
:10042000000020000000e000020032000000020096
:1004300000000000fc120200000000000040da0092
:100440000000fe00208020000000e00002003200da
:10045000002020009001880000000600a102880012
:10046000800078000000eb001a003700e2804000b6
:1004700054a0b4009101ba00e280400054a0b4003e
:100480009102ba00e280400054a0b4000002eb00e8
:10049000472bde00f507b200a6018800602ce100c2
:1004a00008003a000049eb000201e80002003900b0
:1004b0003420ec0002f0a0008301e900f9ff3e00c7
:1004c000040037006128e100010032000082eb00e7
:1004d000040007001101ba000200e000e3ff3a0047
:1004e0000000060004d0a300e20f49001c00390000
:1004f000810278003549ba000201e80002003900a3
:100500003420ec0002f0a0008301e9000f0032006b
:100510002549ba000201e800020039003420ec004d
:1005200002f0a0008301e900080032000400e000ae
:100530000600320015c9ba000201e80002003900c5
:100540003420ec0002f0a0008301e9008180e80083
:1005500054a0b4000300e000e2ff3a0000000600ef
:100560009102ba00055978008301e900f7ff3200d3
:10057000c82ade00055978008301e900f3ff320044
:100580000400e000f1ff320011d9ba00eeff37009d
:100590001012880021128800021288000000060054
:1005a0008000780043c2bf000028a30001003a0089
:1005b000f10fb20041128800000006008460a9001b
:1005c000e7416000c419dd00510a20009140780025
:1005d000f2c8b30082c0600083c070008000fd00dc
:1005e000a5e0b7008000fd00680060004300de0069
:1005f0004300dd0041092000914078000134a10052
:1006000080c070000100780094e0b7000000060090
:100610000021ef0011088800200888000000060073
:100620008560a9008580a900e7416000c419dd004c
:10063000910a200091407800f2c8b30082c06000a7
:1006400083c070008000fd00a9e0b7008000fd00bd
:10065000800178000307b200c419de00a10a20005f
:100660009140780082cfb30082c0600083c07000e8
:100670008000fd00aae0b7008000fd006801600076
:100680004311de004311dd00510920009140780044
:100690000134a10082c070008000fd0095e0b70029
:1006a0008000fd000008b2004700de004400dd00cd
:1006b00051092000914078000144a10080c07000e1
:1006c0000100780095e0b7000000060042118800a4
:1006d00000118800111188000100370030118000de
:1006e00022c2bf000008a300fcff3a008560a900f9
:1006f0000000060020c2bf0066406000e64f5000c8
:1007000002003a0030118000000006003011800025
:10071000f00fb20000000600041920001442780017
:1007200085cfb300054262000002fd0090e1b700f2
:100730000002fd00a20c8800b30c8800800c880029
:10074000910c8800000006006022b800060220001c
:100750000000d0008180d2000482d2008582d200c5
:100760000000a0000202520083825a000300310000
:100770000202420083824a000000a1000603e90051
:08078000f3ff3a00000006003f
:020000040000fa
:020000040005f5
:0457f800af090000f5
:020000040000fa
:020000040005f5
:0457fc007f3f0000eb
:020000040000fa
:10000800e6150000b6150000bc150000c21500007a
:10001800c8150000e6150000e6150000e61500000a
:10002800e6150000e6150000e6150000da120000eb
:10003800e6150000e6150000e6150000e6150000cc
:10004800e6150000e6150000e6150000be110000e8
:10005800d0120000e6150000e6150000e6150000c5
:10006800e6150000e6150000e6150000e61500009c
:10007800e6150000e6150000e6150000e61500008c
:10008800e6150000e6150000e6150000e61500007c
:10009800e6150000e6150000e6150000e61500006c
:1000a800e6150000e6150000e6150000e61500005c
:1000b800e6150000e6150000e6150000e61500004c
:1000c800e6150000e6150000e6150000e61500003c
:1000d800e6150000e6150000e6150000e61500002c
:1000e800e6150000e6150000e6150000e61500001c
:1000f800e6150000e6150000e6150000e61500000c
:10010800e6150000e6150000e6150000e6150000fb
:10011800e6150000e6150000e6150000e6150000eb
:10012800e6150000e6150000e6150000e6150000db
:10013800e6150000e6150000e6150000e6150000cb
:10014800e6150000e6150000e6150000e6150000bb
:10015800e6150000e6150000e6150000e6150000ab
:10016800e6150000e6150000e6150000e61500009b
:10017800e6150000e6150000e6150000e61500008b
:10018800e6150000e6150000e6150000e61500007b
:10019800e6150000e6150000e6150000e61500006b
:1001a800e6150000e6150000e6150000e61500005b
:1001b800e6150000e6150000e6150000e61500004b
:1001c800e6150000e6150000e6150000e61500003b
:1001d800e6150000e6150000e6150000e61500002b
:1001e800e6150000e6150000e6150000e61500001b
:0801f800e6150000e615000009
:020000040000fa
:10020800e6150000ce150000d4150000da15000030
:10021800e0150000e6150000e6150000e6150000f0
:10022800e6150000e6150000e6150000da120000e9
:10023800e6150000e6150000e6150000e6150000ca
:10024800e6150000e6150000e6150000be110000e6
:10025800d0120000e6150000e6150000e6150000c3
:10026800e6150000e6150000e6150000e61500009a
:10027800e6150000e6150000e6150000e61500008a
:10028800e6150000e6150000e6150000e61500007a
:10029800e6150000e6150000e6150000e61500006a
:1002a800e6150000e6150000e6150000e61500005a
:1002b800e6150000e6150000e6150000e61500004a
:1002c800e6150000e6150000e6150000e61500003a
:1002d800e6150000e6150000e6150000e61500002a
:1002e800e6150000e6150000e6150000e61500001a
:1002f800e6150000e6150000e6150000e61500000a
:10030800e6150000e6150000e6150000e6150000f9
:10031800e6150000e6150000e6150000e6150000e9
:10032800e6150000e6150000e6150000e6150000d9
:10033800e6150000e6150000e6150000e6150000c9
:10034800e6150000e6150000e6150000e6150000b9
:10035800e6150000e6150000e6150000e6150000a9
:10036800e6150000e6150000e6150000e615000099
:10037800e6150000e6150000e6150000e615000089
:10038800e6150000e6150000e6150000e615000079
:10039800e6150000e6150000e6150000e615000069
:1003a800e6150000e6150000e6150000e615000059
:1003b800e6150000e6150000e6150000e615000049
:1003c800e6150000e6150000e6150000e615000039
:1003d800e6150000e6150000e6150000e615000029
:1003e800e6150000e6150000e6150000e615000019
:0803f800e6150000e615000007
:020000040000fa
:10078800fe0f0000fe0f0000fe0f0000fe0f00002d
:10079800fe0f0000fe0f0000fe0f0000fe0f00001d
:1007a800fd0f0000fd0f0000fd0f0000fd0f000011
:1007b800fd0f0000fc0f0000fc0f0000fc0f000004
:1007c800fc0f0000fb0f0000fb0f0000fb0f0000f8
:1007d800fa0f0000fa0f0000f90f0000f90f0000ef
:1007e800f80f0000f80f0000f70f0000f70f0000e7
:1007f800f60f0000f60f0000f50f0000f50f0000df
:10080800f40f0000f40f0000f30f0000f20f0000d7
:10081800f20f0000f10f0000f00f0000ef0f0000d2
:10082800ef0f0000ee0f0000ed0f0000ec0f0000ce
:10083800eb0f0000eb0f0000ea0f0000e90f0000cb
:10084800e80f0000e70f0000e60f0000e50f0000ca
:10085800e40f0000e30f0000e20f0000e10f0000ca
:10086800e00f0000df0f0000de0f0000dd0f0000ca
:10087800db0f0000da0f0000d90f0000d80f0000ce
:10088800d70f0000d50f0000d40f0000d30f0000d1
:10089800d20f0000d00f0000cf0f0000ce0f0000d5
:1008a800cc0f0000cb0f0000c90f0000c80f0000dc
:1008b800c70f0000c50f0000c40f0000c20f0000e2
:1008c800c10f0000bf0f0000be0f0000bc0f0000ea
:1008d800ba0f0000b90f0000b70f0000b50f0000f5
:1008e800b40f0000b20f0000b00f0000af0f0000ff
:1008f800ad0f0000ab0f0000a90f0000a80f00000b
:10090800a60f0000a40f0000a20f0000a00f000017
:100918009e0f00009c0f00009b0f0000990f000025
:10092800970f0000950f0000930f0000910f000033
:100938008f0f00008d0f00008b0f0000880f000044
:10094800860f0000840f0000820f0000800f000057
:100958007e0f00007c0f0000790f0000770f000069
:10096800750f0000730f0000700f00006e0f00007d
:100978006c0f0000690f0000670f0000650f000092
:10098800620f0000600f00005d0f00005b0f0000a9
:10099800580f0000560f0000530f0000510f0000c1
:1009a8004e0f00004c0f0000490f0000470f0000d9
:1009b800440f0000410f00003f0f00003c0f0000f3
:1009c800390f0000370f0000340f0000310f00000e
:1009d8002f0f00002c0f0000290f0000260f000029
:1009e800230f0000210f00001e0f00001b0f000046
:1009f800180f0000150f0000120f00000f0f000065
:100a08000c0f0000090f0000060f0000030f000084
:100a1800000f0000fd0e0000fa0e0000f70e0000a7
:100a2800f40e0000f10e0000ee0e0000eb0e0000c8
:100a3800e70e0000e40e0000e10e0000de0e0000ec
:100a4800db0e0000d70e0000d40e0000d10e00000f
:100a5800ce0e0000ca0e0000c70e0000c40e000033
:100a6800c00e0000bd0e0000ba0e0000b60e000059
:100a7800b30e0000af0e0000ac0e0000a80e000080
:100a8800a50e0000a10e00009e0e00009a0e0000a8
:100a9800970e0000930e0000900e00008c0e0000d0
:100aa800890e0000850e0000810e00007e0e0000f9
:100ab8007a0e0000760e0000730e00006f0e000024
:100ac8006b0e0000670e0000640e0000600e000050
:100ad8005c0e0000580e0000540e0000500e00007e
:100ae8004d0e0000490e0000450e0000410e0000aa
:100af8003d0e0000390e0000350e0000310e0000da
:100b08002d0e0000290e0000250e0000210e000009
:100b18001d0e0000190e0000150e0000110e000039
:100b28000d0e0000090e0000050e0000010e000069
:100b3800fc0d0000f80d0000f40d0000f00d0000a1
:100b4800ec0d0000e70d0000e30d0000df0d0000d4
:100b5800db0d0000d60d0000d20d0000ce0d000008
:100b6800c90d0000c50d0000c10d0000bc0d00003e
:100b7800b80d0000b40d0000af0d0000ab0d000073
:100b8800a60d0000a20d00009d0d0000990d0000ab
:100b9800940d0000900d00008b0d0000870d0000e3
:100ba800820d00007e0d0000790d0000750d00001b
:100bb800700d00006b0d0000670d0000620d000055
:100bc8005e0d0000590d0000540d00004f0d00008f
:100bd8004b0d0000460d0000410d00003d0d0000ca
:100be800380d0000330d00002e0d00002a0d000006
:100bf800250d0000200d00001b0d0000160d000043
:100c0800110d00000d0d0000080d0000030d00007f
:100c1800fe0c0000f90c0000f40c0000ef0c0000c2
:100c2800ea0c0000e50c0000e00c0000db0c000002
:100c3800d60c0000d10c0000cc0c0000c70c000042
:100c4800c20c0000bd0c0000b80c0000b30c000082
:100c5800ae0c0000a90c0000a40c00009f0c0000c2
:100c6800990c0000940c00008f0c00008a0c000006
:100c7800850c0000800c00007a0c0000750c000048
:100c8800700c00006b0c0000660c0000600c00008b
:100c98005b0c0000560c0000510c00004b0c0000cf
:100ca800460c0000410c00003b0c0000360c000014
:100cb800310c00002b0c0000260c0000210c000059
:100cc8001b0c0000160c0000100c00000b0c0000a0
:100cd800060c0000000c0000fb0b0000f50b0000e8
:100ce800f00b0000ea0b0000e50b0000df0b000032
:100cf800da0b0000d40b0000cf0b0000c90b00007a
:100d0800c40b0000be0b0000b90b0000b30b0000c1
:100d1800ad0b0000a80b0000a20b00009d0b00000b
:100d2800970b0000910b00008c0b0000860b000055
:100d3800810b00007b0b0000750b0000700b00009e
:100d48006a0b0000640b00005f0b0000590b0000e9
:100d5800530b00004d0b0000480b0000420b000035
:100d68003c0b0000370b0000310b00002b0b000080
:100d7800250b00001f0b00001a0b0000140b0000cd
:100d88000e0b0000080b0000020b0000fd0a00001b
:100d9800f70a0000f10a0000eb0a0000e50a00006b
:100da800df0a0000da0a0000d40a0000ce0a0000b8
:100db800c80a0000c20a0000bc0a0000b60a000007
:100dc800b00a0000aa0a0000a40a00009f0a000056
:100dd800990a0000930a00008d0a0000870a0000a3
:100de800810a00007b0a0000750a00006f0a0000f3
:100df800690a0000630a00005d0a0000570a000043
:100e0800510a00004b0a0000450a00003f0a000092
:100e1800390a0000330a00002d0a0000270a0000e2
:100e2800210a00001b0a0000150a00000e0a000033
:100e3800080a0000020a0000fc090000f609000088
:100e4800f0090000ea090000e4090000de090000da
:100e5800d8090000d2090000cb090000c50900002c
:100e6800bf090000b9090000b3090000ad0900007e
:100e7800a7090000a00900009a09000094090000d1
:100e88008e09000088090000820900007b09000023
:100e9800750900006f090000690900006309000076
:100ea8005d09000056090000500900004a090000c9
:100eb800440900003e09000037090000310900001c
:100ec8002b090000250900001f090000180900006f
:100ed800120900000c09000006090000ff080000c4
:100ee800f9080000f3080000ed080000e60800001b
:100ef800e0080000da080000d4080000ce0800006e
:100f0800c7080000c1080000bb080000b4080000c2
:100f1800ae080000a8080000a20800009b08000016
:100f2800950800008f08000089080000820800006a
:100f38007c080000760800007008000069080000be
:100f4800630800005d080000560800005008000013
:100f58004a080000440800003d0800003708000067
:100f6800310800002b080000240800001e080000bb
:100f780018080000110800000b0800000508000010
:100f8800ff070000f8070000f2070000ec07000068
:100f9800e5070000df070000d9070000d3070000bd
:100fa800cc070000c6070000c0070000ba07000011
:100fb800b3070000ad070000a7070000a007000066
:100fc8009a070000940700008e07000087070000ba
:100fd800810700007b070000750700006e0700000e
:100fe80068070000620700005b0700005507000063
:100ff8004f07000049070000420700003c070000b7
:10100800360700003007000029070000230700000a
:101018001d07000017070000100700000a0700005e
:1010280004070000fe060000f8060000f1060000b4
:10103800eb060000e5060000df060000d806000009
:10104800d2060000cc060000c6060000c00600005c
:10105800b9060000b3060000ad060000a7060000b0
:10106800a10600009a060000940600008e06000003
:1010780088060000820600007c0600007506000055
:101088006f06000069060000630600005d060000a8
:1010980057060000500600004a06000044060000fb
:1010a8003e06000038060000320600002c0600004c
:1010b800260600001f06000019060000130600009f
:1010c8000d0600000706000001060000fb050000f1
:1010d800f5050000ef050000e9050000e305000044
:1010e800dd050000d7050000d0050000ca05000096
:1010f800c4050000be050000b8050000b2050000e8
:10110800ac050000a6050000a00500009a05000037
:10111800940500008e050000880500008205000087
:101128007c05000076050000710500006b050000d5
:10113800650500005f050000590500005305000023
:101148004d05000047050000410500003b05000073
:10115800350500002f0500002a05000024050000c1
:101168001e05000018050000120500000c0500000f
:101178000605000001050000fb040000f50400005e
:10118800ef040000e9040000e4040000de040000ad
:10119800d8040000d2040000cc040000c7040000fa
:1011a800c1040000bb040000b6040000b004000045
:1011b800aa040000a40400009f0400009904000091
:1011c800930400008e0400008804000082040000dc
:1011d8007d04000077040000710400006c04000026
:1011e80066040000610400005b0400005504000070
:1011f800500400004a040000450400003f040000b9
:101208003a040000340400002f0400002904000000
:10121800230400001e040000190400001304000049
:101228000e0400000804000003040000fd03000091
:10123800f8030000f2030000ed030000e8030000db
:10124800e2030000dd030000d7030000d203000022
:10125800cd030000c7030000c2030000bd03000067
:10126800b7030000b2030000ad030000a8030000ac
:10127800a20300009d0300009803000092030000f1
:101288008d03000088030000830300007e03000034
:1012980078030000730300006e0300006903000078
:1012a800640300005f0300005a03000054030000b9
:1012b8004f0300004a0300004503000040030000fc
:1012c8003b03000036030000310300002c0300003c
:1012d80027030000220300001d030000180300007c
:1012e800130300000e0300000903000004030000bc
:1012f800ff020000fb020000f6020000f1020000fd
:10130800ec020000e7020000e2020000dd0200003b
:10131800d9020000d4020000cf020000ca02000077
:10132800c5020000c1020000bc020000b7020000b4
:10133800b3020000ae020000a9020000a5020000ee
:10134800a00200009b020000970200009202000029
:101358008d02000089020000840200008002000063
:101368007b02000077020000720200006d0200009c
:101378006902000064020000600200005c020000d4
:1013880057020000530200004e0200004a0200000b
:1013980045020000410200003d0200003802000042
:1013a80034020000300200002b0200002702000077
:1013b800230200001f0200001a02000016020000ab
:1013c800120200000e0200000902000005020000df
:1013d80001020000fd010000f9010000f501000014
:1013e800f1010000ec010000e8010000e401000048
:1013f800e0010000dc010000d8010000d401000079
:10140800d0010000cc010000c8010000c4010000a8
:10141800c0010000bd010000b9010000b5010000d5
:10142800b1010000ad010000a9010000a501000004
:10143800a20100009e0100009a0100009601000030
:10144800920100008f0100008b010000870100005d
:1014580084010000800100007c0100007901000087
:1014680075010000710100006e0100006a010000b2
:101478006701000063010000600100005c010000da
:101488005901000055010000520100004e01000002
:101498004b01000047010000440100004101000029
:1014a8003d0100003a01000037010000330100004f
:1014b800300100002d010000290100002601000074
:1014c80023010000200100001c0100001901000098
:1014d8001601000013010000100100000d010000ba
:1014e8000a010000070100000301000000010000dc
:1014f800fd000000fa000000f7000000f400000002
:10150800f1000000ee000000eb000000e900000020
:10151800e6000000e3000000e0000000dd0000003d
:10152800da000000d7000000d5000000d20000005b
:10153800cf000000cc000000ca000000c700000077
:10154800c4000000c2000000bf000000bc00000092
:10155800ba000000b7000000b4000000b2000000ac
:10156800af000000ad000000aa000000a8000000c5
:10157800a5000000a3000000a00000009e000000dd
:101588009c000000990000009700000094000000f3
:1015980092000000900000008d0000008b00000009
:1015a800890000008700000084000000820000001d
:1015b800800000007e0000007c0000007a0000002f
:1015c8007700000075000000730000007100000043
:1015d8006f0000006d0000006b0000006900000053
:1015e8006700000065000000630000006100000063
:1015f8005f0000005d0000005c0000005a00000071
:10160800580000005600000054000000530000007d
:10161800510000004f0000004d0000004c00000089
:101628004a00000048000000470000004500000094
:101638004300000042000000400000003f0000009e
:101648003d0000003c0000003a00000039000000a6
:1016580037000000360000003400000033000000ae
:1016680032000000300000002f0000002e000000b3
:101678002c0000002b0000002a00000028000000b9
:1016880027000000260000002500000024000000bc
:101698002200000021000000200000001f000000c0
:1016a8001e0000001d0000001c0000001b000000c0
:1016b8001a000000190000001800000017000000c0
:1016c80016000000150000001400000013000000c0
:1016d80013000000120000001100000010000000bc
:1016e8000f0000000f0000000e0000000d000000b9
:1016f8000c0000000c0000000b0000000a000000b5
:101708000a000000090000000900000008000000ad
:1017180007000000070000000600000006000000a7
:10172800050000000500000005000000040000009e
:101738000400000003000000030000000300000094
:101748000200000002000000020000000200000089
:10175800010000000100000001000000010000007d
:101768000100000000000000000000000000000070
:101778000000000000000000000000000000000061
:04178800000000005d
:020000040000fa
:10178c002200fa000040eb00004f78000500370003
:10179c001e81fb008e00e800f0c3b30000f178005e
:1017ac001e4fe800f0c1b3009e4f1000f8ff36004a
:1017bc00c1168000f0fd2f0000806000c01688006c
:1017cc00c0168000c0168800c1168000d0ff2f0004
:1017dc0000806000c0168800c0168000c01688000b
:1017ec00c1168000f0fb2f0000806000c01688003e
:1017fc00c0168000c0168800c1168000f0fe2f00b5
:10180c0000806000c0168800c0168000c0168800da
:10181c00c116800070ff2f0000806000c016880089
:10182c00c0168000c0168800c1168000b0ff2f00c3
:10183c0000806000c0168800c0168000c0168800aa
:10184c00e1168000f0fd2f0000806000e01688009b
:10185c00e1168000d0ff2f0000806000e0168800a9
:10186c00e11680000004200000807000e016880063
:10187c00e1168000f0fe2f0000806000e01688006a
:10188c00e01680000030a000e0168800320007004f
:10189c00020028008000eb000016200039fb070036
:1018ac000080fa00000006000800fa0030079800db
:1018bc00e11680000004200000807000e016880013
:1018cc000000eb00200798001700370000c2b3009f
:1018dc002047980050002000000f78000d003700c2
:1018ec00dc42a800e01680000010a000e016880082
:1018fc00e1168000d0ff2f0000806000e016880009
:10190c002e4090000080fb000000d1002047980082
:10191c001e0fe9001e00e000f1ff3d002e009000bc
:10192c000000e800200798002e009000ff0f5000e8
:10193c00e6ff3400e01680000040a000e0168800ae
:10194c00e1168000f0fe2f0000806000e016880099
:10195c000080fa00000006000400fa000000eb0012
:10196c00100798000000eb00000f7800e1168000d3
:10197c00f0fb2f0000806000e0168800e01680006d
:10198c000030a000e01688000000eb001007980063
:10199c0020003700001820009e0f100009003400b2
:1019ac00e11680000002200000807000e016880024
:1019bc00e1168000f0fd2f0000806000e01688002a
:1019cc0011003700dc42a800e01680000010a000d7
:1019dc00e0168800e1168000d0ff2f000080600028
:1019ec00e01688001e0fe800e116800000022000bf
:1019fc0000807000e0168800e1168000f0fd2f00da
:101a0c0000806000e01688001e0090000000e800d6
:101a1c00100798009e009000f0ff2000808f50006f
:101a2c00dcff3400e01680000040a000e0168800c7
:101a3c00e1168000f0fe2f0000806000e0168800a8
:101a4c00e116800070ff2f0000806000e016880017
:101a5c00e01680000010a000e0168800e11680005f
:101a6c00d0ff2f0000806000e01688000080fa0094
:101a7c00000006000000fa00f30120000204200020
:101a8c00f101200060c0210020fb07009000200025
:101a9c00c7fa0700f1ff270000012800d9fa070058
:101aac000080fa00000006000400fa0084c0bf00a9
:101abc00684060000004e00052003200e016800034
:101acc000030a000e0168800dcc2a800dcc2bf0019
:101adc000080fb004600de00614060000004e00076
:101aec001f003200d1168000f0fb2f000080600038
:101afc00d0168800e01680000040a000e016880098
:101b0c00e1168000f0fe2f0000806000e0168800d7
:101b1c0088c8bf000004e00009003200e016800015
:101b2c000040a000e0168800e1168000f0fe2f00b7
:101b3c0000806000e01688000040eb0088e8b700e9
:101b4c00e01680000010a000e0168800e11680006e
:101b5c00d0ff2f0000806000e01688000c003700da
:101b6c0088c8bf000004e00009003200e0168000c5
:101b7c000040a000e0168800e1168000f0fe2f0067
:101b8c0000806000e01688000040eb0088e8b70099
:101b9c00e116800070ff2f0000806000e0168800c6
:101bac000040eb00204798000f0037002e409000bb
:101bbc008080fb0080812000008040001040780075
:101bcc000080fb0073fa070040c2bf006240600057
:101bdc000004e000fcff3a008540a9002e40900074
:101bec000040e80020479800ae409000f0c2b300df
:101bfc0080cf5000edff360010c0b30088e8b7006e
:101c0c008460a9000080fa00000006000200fa00bf
:101c1c000040eb0010479800e01680000010a00078
:101c2c00e0168800e116800000042000008070009f
:101c3c00e0168800e01680000040a000e016880046
:101c4c00e1168000f0fe2f0000806000e016880096
:101c5c000080fa00000006000600fa002007980039
:101c6c002e0090004400de00204798002e009000cb
:101c7c00c400dd002e4090000080fb004400de001c
:101c8c0000c07000104798000040eb00004f780037
:101c9c009e80fb008081200000804000ae409000c0
:101cac00014878001e4fe8009e80fb0080812000d8
:101cbc00008040009e409000014878001e4fe800d4
:101ccc001e81fb002e009000804078008081200057
:101cdc0000004100014878001e4fe800f0c2b3003c
:101cec009e4f1000eaff36000080fa00000006004c
:101cfc000600fa002047980021079800ae4090009b
:101d0c00f0c1b30001405000204798002e409000d5
:101d1c000080fb006300b9000000d100000f7800c8
:101d2c002e4090000080fb00610060000000e0008d
:101d3c0001003200160037001e0178002e009000c2
:101d4c004400de00804078008081200000004100cb
:101d5c00014878001e0fe8001e0178009e007800f4
:101d6c00808120000080400010407800ef4060002f
:101d7c002e0090004400dd0000c070008040780010
:101d8c0080812000000041000148780014003700d9
:101d9c001e0178009e0078008081200000804000a9
:101dac009040780000cfb30080c060002e009000ff
:101dbc004800de0080c070008081200000004100df
:101dcc00014878001e0fe8001e0178002e009000dc
:101ddc00804078008081200000004100014878009c
:101dec000080fa00000006000000fa00c0428000eb
:101dfc00e10f500008003a0071428000c03f200003
:101e0c00808f500004003e00704280000080e8008b
:101e1c00704288001b003700c0428000e10f500068
:101e2c0007003a0071428000e03f2000808f500094
:101e3c0003003a000000eb00c0428800110037009c
:101e4c00c04280000000e00008003a0071428000af
:101e5c00c02b2000808f50000400360070428000a0
:101e6c000080e90070428800060037007142800053
:101e7c00c02b2000808f500002003a001000200080
:101e8c00c04288000080fa00000006000000fa0042
:101e9c0061428000c03f2000808f50000b003a0050
:101eac0041428000803f2000808f500007003e00a0
:101ebc005042800064005000504288004042800034
:101ecc0064004000404288001d0037004142800001
:101edc00c03f2000808f50000b003a005142800020
:101eec00803f2000808f500007003e006042800041
:101efc006400500060428800504280006400400042
:101f0c00504288000e00370051428000c03f200034
:101f1c00808f50000a003a0061428000803f200010
:101f2c00808f500006003e0060428000640040003c
:101f3c0060428800404280006400500040428800ab
:101f4c000080fa00000006000000fa00a0428000a9
:101f5c00a04288000000e800a04288000080fa003f
:101f6c00000006000400fa00204798002e40900064
:101f7c000080fb006300b900634f500050428000aa
:101f8c0080004000403c2800008040001000780099
:101f9c00800078001e40780055ff0700404280000a
:101fac0080004000403c2800008040001000780079
:101fbc00800078001e40e8004dff07006042800062
:101fcc0080004000403c2800008040001000780059
:101fdc00800078001ec0e80045ff07000080fa0072
:101fec00000006000400fa00204798002e409000e4
:101ffc000080fb006300b900634f5000704280000a
:10200c0080004000403c2800008040001000780018
:10201c00800078001e40780035ff07000080fa0031
:10202c00000006000400fa00204798002e409000a3
:10203c000080fb006300b900634f5000b042800089
:10204c008000d100a0428000808f50000800360034
:10205c00201e8400800078001e40e80024ff07004a
:10206c00e05d8400800078001e40780020ff0700af
:10207c00b04280008000d100a0428000808f5000d0
:10208c000e003100e05d8400800078001e40e80006
:10209c0017ff0700201e8400800078001e40780087
:1020ac0013ff0700a1428000b0428000808f5000d7
:1020bc00020036000000eb00a04288000080fa000d
:1020cc00000006000e00fa00404f98004e489000a9
:1020dc000083fb00070020008600780040062000eb
:1020ec00000ab8006030b900050178000001410019
:1020fc004006200000b8b9000001410082027800bf
:10210c0042062000030020000400be008bf90700eb
:10211c004007980051079800ce009000f0ff200077
:10212c00000ab8004e0090006000b900050178006c
:10213c0000014100de009000f0ff20000088b90093
:10214c0000014100820278004206200003002000ba
:10215c000400be0079f907002007980031079800a9
:10216c002e009000100798000040eb00004f780004
:10217c000040eb00004f7800060037009e009000f6
:10218c001e407800dafe07001e40780063404000d5
:10219c00004f7800e0c1b3009e4f1000f7ff3600ef
:1021ac000080fa00000006000e00fa00404f980074
:1021bc004e4890000083fb0007002000860078004a
:1021cc0040062000000ab8006030b9000501780014
:1021dc00000141004006200000b8b9000001410098
:1021ec008202780042062000030020000400be009a
:1021fc0052f907004007980051079800ce00900054
:10220c00f0ff2000000ab8004e0090006000b900fa
:10221c000501780000014100de009000f0ff200075
:10222c000088b900000141008202780042062000bb
:10223c00030020000400be0040f9070020079800ae
:10224c00310798002e0090001007980010c0b300c2
:10225c00004f780010c0b300004f78000600370024
:10226c009e0090001e407800a1fe07001e407800e2
:10227c0063404000004f7800e0c1b3009e4f100057
:10228c00f7ff36000080fa00000006000e00fa008e
:10229c00404f98004e4890000083fb000700200040
:1022ac008600780040062000000ab8006030b900b3
:1022bc0005017800000141004006200000b8b9007b
:1022cc000001410082027800420620000300200039
:1022dc000400be0019f90700400798005107980048
:1022ec00ce009000f0ff2000000ab8004e009000d5
:1022fc006000b9000501780000014100de0090008b
:10230c00f0ff20000088b900000141008202780033
:10231c0042062000030020000400be0007f907005d
:10232c0020079800310798002e00900010079800a5
:10233c0020c0b300004f780020c0b300004f7800dd
:10234c00060037009e0090001e40780068fe0700d3
:10235c001e40780063404000004f7800e0c1b3009d
:10236c009e4f1000f7ff36000080fa0000000600b8
:10237c003600f800809fbe00829fbe00849fbe0086
:10238c00869fbe001600fa008560a900dcc2bf0063
:10239c00614060000004a200614060006141600087
:1023ac00c12d200091407800e0cfb30000c0600048
:1023bc0002407000dce2b70072c8bf000004e0000d
:1023cc0064003a00c8f8070078e8b700818720005d
:1023dc00914078000040eb005057980020c7b300a4
:1023ec0080cf500002003a0011c0b3005157980042
:1023fc0081872000914078000041eb004257980003
:10240c0020c6b30080cf500002003a0010c0b300c9
:10241c0040579800de5090004e51900002c0700062
:10242c000080fb00100f98008187200091407800fd
:10243c000000eb00000f980070c6b30080cf500076
:10244c0002003a0011002000010f98001e099000b4
:10245c000e0890000001710072079800818720001f
:10246c00914078000001eb006207980000c5b300b2
:10247c0080cf500002003a00100020006007980046
:10248c00fe0090006e019000828070005107980051
:10249c0081872000914078000000eb0040079800f5
:1024ac0030c4b30080cf500002003a00110020006d
:1024bc00410798005e0190004e00900000017100f1
:1024cc003207980081872000914078000001eb00d2
:1024dc002207980040c4b30080cf500002003a009d
:1024ec001000200020079800be0090002e019000e4
:1024fc00828070001107980081872000914078003d
:10250c000000eb00000f7800b0c4b30080cf500087
:10251c0002003a0011002000010f78001e0190000b
:10252c009e007800010071000000e00006003200ff
:10253c0078c8bf0077e8b70072c8bf000040e80059
:10254c0072e8b7000c0037000040eb0072e8b700ef
:10255c000900370072c8bf00e14f500006003a0076
:10256c0061f807005ee8b7000040eb0072e8b700c6
:10257c0010c0b3005fe8b7000080fa004f03be0044
:10258c004f02be004f01be004f00be003600f900e6
:10259c00004006000000fa00dc02a9008580a900ba
:1025ac000080fa00004006003600f800809fbe0054
:1025bc00829fbe00849fbe00869fbe000000fa0072
:1025cc0039fd070010c0b3006de8b7008460a900a6
:1025dc000080fa004f03be004f02be004f01be0048
:1025ec004f00be003600f900004006000a00fa0059
:1025fc00113a8000f00b2000008160006104200083
:10260c0070052000237420008149780080497800ef
:10261c0082497800416a20009140780000ccb300d8
:10262c0000c06000a040b300a4e6b700a16d20007c
:10263c009140780000ccb30000c060003040b30083
:10264c00dae6b700416d20009140780000ccb30071
:10265c0000c060002041b300d4e6b700716d2000cb
:10266c009140780000ccb30000c060007040b30013
:10267c00d7e6b700816d20009140780000ccb30004
:10268c0000c060000034a000d8e6b700d802a90052
:10269c00c00c2000dff707002202200001402000c0
:1026ac008000280006f8070035fc0700f1fc070045
:1026bc000000eb0068fd070000482800e101200045
:1026cc0041010700dc02a9000000370080438000b4
:1026dc00804388000000e80080438800804380002d
:1026ec00e50f50000400360017fe0700befd070082
:1026fc000000eb00804388002044800020448800c8
:10270c000000e800204488002144800000202000c4
:10271c00808f5000020036000000eb00204488003f
:10272c007143800020448000808f500003003100f2
:10273c00d6fd07000000eb002044880022c2bf0039
:10274c0062406000704798007e4090000004e000fa
:10275c000200320011c0b300714798007e41900016
:10276c006247980022c2bf0064406000004f98008e
:10277c008e4990000304e0000200320010c0b30048
:10278c00004f98000e489000ee40900000c0700082
:10279c000080fb002007980022c2bf006840600048
:1027ac000001eb00120798000004e0000200320068
:1027bc001300200013079800ae0090001e0190003b
:1027cc00028070000000e0000600320022c2bf0050
:1027dc000080fb000000d100614060000080fb0025
:1027ec00304488006bc8bf00e14f500010003a0025
:1027fc006dc8bf00e14f50000d003a0010c0b3008f
:10280c006ce8b700050037006cc8bf00d5fd0700a9
:10281c006cc8bf000040e8006ce8b7006cc8bf0093
:10282c00eb4f5000f8ff36000040eb006de8b700ae
:10283c005cc8bf00e14f50000b003a0010c0b30061
:10284c006ce8b700050037006cc8bf00f5fd070049
:10285c006cc8bf000040e8006ce8b7006cc8bf0053
:10286c00eb4f5000f8ff360076c8bf00e14f500028
:10287c000b003a0010c0b3006ce8b700050037003d
:10288c006cc8bf00d7fd07006cc8bf000040e80053
:10289c006ce8b7006cc8bf00eb4f5000f8ff360077
:1028ac005fc8bf00e14f500088ff3a0077c8bf00f7
:1028bc000080fb00000f7800000520009e017800ce
:1028cc00808f510039003200000520009e007800f6
:1028dc00808f50000d003c00400420001e01780049
:1028ec00800f510052003200b00420009e0178008d
:1028fc00808f51005b003200300420009e00780075
:10290c00808f50003900320070ff370070062000b5
:10291c001e017800800f51001b00320020072000a0
:10292c009e017800808f51000500320020062000a7
:10293c009e007800808f50000a00320063ff370041
:10294c000040eb005ce8b7005ec8bf00ddfd07008f
:10295c000040eb005fe8b7000040eb006be8b7000d
:10296c005aff37000040eb005ce8b7005ec8bf00c0
:10297c000dfe07000040eb005fe8b7000040eb00e5
:10298c006be8b70051ff37000040eb005ce8b70084
:10299c005ec8bf003dfe07000040eb005fe8b700db
:1029ac000040eb006be8b70048ff37000040eb003d
:1029bc005ce8b7000000eb00a7fc070010c0b300f8
:1029cc006be8b7000040eb005fe8b7005ec8bf00e3
:1029dc000080fb004900dd004206200011000900c8
:1029ec000280d8007043880038ff37000040eb00ad
:1029fc005fe8b7000040eb0076e8b7000040eb0062
:102a0c006be8b7000000eb0093fc07005ec8bf004a
:102a1c000004e0000300320010c0b3005ce8b70013
:102a2c002aff37000040eb005ce8b70027ff3700b7
:102a3c000040eb005fe8b7005ec8bf000004e00098
:102a4c000500320010c0b30076e8b7000040eb0080
:102a5c005ce8b7001dff37000040eb0076e8b700dc
:102a6c001aff37000040eb006be8b7000040eb00aa
:102a7c005fe8b7000040eb005ce8b7000040eb00fb
:102a8c0076e8b7000000eb0073fc07000fff37007f
:020000040000fa
:102a9c005c0800001600000082000000000000002e
:102aac0000004d00696372006f636800697000007c
:102abc00000000000002000000000000720800008e
:102acc001600000080000000000800005c00000000
:102adc0082000000ffffff00ffffff00ffffff0071
:102aec00ffffff00000000000000000000000000dd
:102afc00000000000000000000000000800000004a
:102b0c000008000000000000800000000000000031
:102b1c0000000000000000000000000000000000a9
:102b2c000000000000000000000000000000000099
:102b3c00000000000000fc0003fc03000000fc008f
:102b4c0003fc030000002c00010100000100000048
:102b5c008808000002000000800000000000000057
:020000040000fa
:102b6c000000fa008020a900ffff37000000fa00e7
:102b7c008060a900ffff37000000fa008040a90028
:102b8c00ffff37000000fa008080a900ffff37002c
:102b9c000000fa008020a900ffff37000000fa00b7
:102bac008060a900ffff37000000fa008040a900f8
:102bbc00ffff37000000fa008080a900ffff3700fc
:082bcc000000fa00ffff3700d2
:020000040000fa
:102bd400f03fb1000180b10006003500ee030900aa
:102be40000000000403fb1000180b100fbff3d0048
:102bf4001000b000203fb000020035000080090042
:082c04000000000000000600c2
:020000040000fa
:102c0c000000fa000080fa00000006000000fa0044
:082c1c000080fa000000060030
:00000001FF
