:020000040000fa
:080000000002040000000000f2
:020000040000fa
:100400002f8020000eff27000e0188000000000052
:100410000c000700e0392000010020000f00070059
:10042000000020000000e000020032000000020096
:100430000000000048030200000000000040da0055
:100440000000fe00000020000000e000020032007a
:10045000000020009001880000000600a102880032
:10046000800078000000eb001a003700e2804000b6
:1004700054a0b4009101ba00e280400054a0b4003e
:100480009102ba00e280400054a0b4000002eb00e8
:10049000472bde00f507b200a6018800602ce100c2
:1004a00008003a000049eb000201e80002003900b0
:1004b0003420ec0002f0a0008301e900f9ff3e00c7
:1004c000040037006128e100010032000082eb00e7
:1004d000040007001101ba000200e000e3ff3a0047
:1004e0000000060004d0a300e20f49001c00390000
:1004f000810278003549ba000201e80002003900a3
:100500003420ec0002f0a0008301e9000f0032006b
:100510002549ba000201e800020039003420ec004d
:1005200002f0a0008301e900080032000400e000ae
:100530000600320015c9ba000201e80002003900c5
:100540003420ec0002f0a0008301e9008180e80083
:1005500054a0b4000300e000e2ff3a0000000600ef
:100560009102ba00055978008301e900f7ff3200d3
:10057000c82ade00055978008301e900f3ff320044
:100580000400e000f1ff320011d9ba00eeff37009d
:100590008560a9008580a900e7416000c419dd00dd
:1005a000910a200091407800f2c8b30082c0600038
:1005b00083c070008000fd00a9e0b7008000fd004e
:1005c000800178000307b200c419de00a10a2000f0
:1005d0009140780082cfb30082c0600083c0700079
:1005e0008000fd00aae0b7008000fd006801600007
:1005f0004311de004311dd005109200091407800d5
:100600000134a10082c070008000fd0095e0b700b9
:100610008000fd000008b2004700de004400dd005d
:1006200051092000914078000144a10080c0700071
:100630000100780095e0b700000006004211880034
:10064000001188001111880001003700301180006e
:1006500022c2bf000008a300fcff3a008560a90089
:040660000000060090
:020000040000fa
:100008009a0300006a0300007003000076030000f2
:100018007c0300009a0300009a0300009a03000082
:100028009a0300009a0300009a0300009a03000054
:100038009a0300009a0300009a0300009a03000044
:100048009a0300009a0300009a030000320300009c
:100058009a0300009a0300009a0300009a03000024
:100068009a0300009a0300009a0300009a03000014
:100078009a0300009a0300009a0300009a03000004
:100088009a0300009a0300009a0300009a030000f4
:100098009a0300009a0300009a0300009a030000e4
:1000a8009a0300009a0300009a0300009a030000d4
:1000b8009a0300009a0300009a0300009a030000c4
:1000c8009a0300009a0300009a0300009a030000b4
:1000d8009a0300009a0300009a0300009a030000a4
:1000e8009a0300009a0300009a0300009a03000094
:1000f8009a0300009a0300009a0300009a03000084
:100108009a0300009a0300009a0300009a03000073
:100118009a0300009a0300009a0300009a03000063
:100128009a0300009a0300009a0300009a03000053
:100138009a0300009a0300009a0300009a03000043
:100148009a0300009a0300009a0300009a03000033
:100158009a0300009a0300009a0300009a03000023
:100168009a0300009a0300009a0300009a03000013
:100178009a0300009a0300009a0300009a03000003
:100188009a0300009a0300009a0300009a030000f3
:100198009a0300009a0300009a0300009a030000e3
:1001a8009a0300009a0300009a0300009a030000d3
:1001b8009a0300009a0300009a0300009a030000c3
:1001c8009a0300009a0300009a0300009a030000b3
:1001d8009a0300009a0300009a0300009a030000a3
:1001e8009a0300009a0300009a0300009a03000093
:0801f8009a0300009a030000c5
:020000040000fa
:100208009a03000082030000880300008e030000a8
:10021800940300009a0300009a0300009a03000068
:100228009a0300009a0300009a0300009a03000052
:100238009a0300009a0300009a0300009a03000042
:100248009a0300009a0300009a030000320300009a
:100258009a0300009a0300009a0300009a03000022
:100268009a0300009a0300009a0300009a03000012
:100278009a0300009a0300009a0300009a03000002
:100288009a0300009a0300009a0300009a030000f2
:100298009a0300009a0300009a0300009a030000e2
:1002a8009a0300009a0300009a0300009a030000d2
:1002b8009a0300009a0300009a0300009a030000c2
:1002c8009a0300009a0300009a0300009a030000b2
:1002d8009a0300009a0300009a0300009a030000a2
:1002e8009a0300009a0300009a0300009a03000092
:1002f8009a0300009a0300009a0300009a03000082
:100308009a0300009a0300009a0300009a03000071
:100318009a0300009a0300009a0300009a03000061
:100328009a0300009a0300009a0300009a03000051
:100338009a0300009a0300009a0300009a03000041
:100348009a0300009a0300009a0300009a03000031
:100358009a0300009a0300009a0300009a03000021
:100368009a0300009a0300009a0300009a03000011
:100378009a0300009a0300009a0300009a03000001
:100388009a0300009a0300009a0300009a030000f1
:100398009a0300009a0300009a0300009a030000e1
:1003a8009a0300009a0300009a0300009a030000d1
:1003b8009a0300009a0300009a0300009a030000c1
:1003c8009a0300009a0300009a0300009a030000b1
:1003d8009a0300009a0300009a0300009a030000a1
:1003e8009a0300009a0300009a0300009a03000091
:0803f8009a0300009a030000c3
:020000040000fa
:10066400801f78000000fa00dc02a80085c0bf00eb
:10067400684060000004e000010032008560a900c9
:100684000080fa004f007800004006000000fa00e5
:100694002d0007002f000700d802a900416a20009e
:1006a4009140780000ccb30000c06000c040b300ab
:1006b400a4e6b7000080eb00b4ff0700220220008c
:1006c400f1fd2e000080eb00dbff0700ffff370089
:1006d4000000fa008020a900ffff37000000fa00a4
:1006e4008060a900ffff37000000fa008040a900e5
:1006f400ffff37000000fa008080a900ffff3700e9
:100704000000fa008020a900ffff37000000fa0073
:100714008060a900ffff37000000fa008040a900b4
:10072400ffff37000000fa008080a900ffff3700b8
:080734000000fa00ffff37008e
:020000040000fa
:10073c000008000002000000800000000000000023
:020000040000fa
:10074c000000fa000080fa00000006000000fa0029
:08075c000080fa000000060015
:00000001FF
